{
  "contractName": "CreatureToken",
  "abi": [
    {
      "inputs": [],
      "stateMutability": "nonpayable",
      "type": "constructor"
    },
    {
      "anonymous": false,
      "inputs": [
        {
          "indexed": true,
          "internalType": "address",
          "name": "account",
          "type": "address"
        },
        {
          "indexed": true,
          "internalType": "address",
          "name": "operator",
          "type": "address"
        },
        {
          "indexed": false,
          "internalType": "bool",
          "name": "approved",
          "type": "bool"
        }
      ],
      "name": "ApprovalForAll",
      "type": "event"
    },
    {
      "anonymous": false,
      "inputs": [
        {
          "indexed": true,
          "internalType": "address",
          "name": "operator",
          "type": "address"
        },
        {
          "indexed": true,
          "internalType": "address",
          "name": "from",
          "type": "address"
        },
        {
          "indexed": true,
          "internalType": "address",
          "name": "to",
          "type": "address"
        },
        {
          "indexed": false,
          "internalType": "uint256[]",
          "name": "ids",
          "type": "uint256[]"
        },
        {
          "indexed": false,
          "internalType": "uint256[]",
          "name": "values",
          "type": "uint256[]"
        }
      ],
      "name": "TransferBatch",
      "type": "event"
    },
    {
      "anonymous": false,
      "inputs": [
        {
          "indexed": true,
          "internalType": "address",
          "name": "operator",
          "type": "address"
        },
        {
          "indexed": true,
          "internalType": "address",
          "name": "from",
          "type": "address"
        },
        {
          "indexed": true,
          "internalType": "address",
          "name": "to",
          "type": "address"
        },
        {
          "indexed": false,
          "internalType": "uint256",
          "name": "id",
          "type": "uint256"
        },
        {
          "indexed": false,
          "internalType": "uint256",
          "name": "value",
          "type": "uint256"
        }
      ],
      "name": "TransferSingle",
      "type": "event"
    },
    {
      "anonymous": false,
      "inputs": [
        {
          "indexed": false,
          "internalType": "string",
          "name": "value",
          "type": "string"
        },
        {
          "indexed": true,
          "internalType": "uint256",
          "name": "id",
          "type": "uint256"
        }
      ],
      "name": "URI",
      "type": "event"
    },
    {
      "inputs": [
        {
          "internalType": "address",
          "name": "account",
          "type": "address"
        },
        {
          "internalType": "uint256",
          "name": "id",
          "type": "uint256"
        }
      ],
      "name": "balanceOf",
      "outputs": [
        {
          "internalType": "uint256",
          "name": "",
          "type": "uint256"
        }
      ],
      "stateMutability": "view",
      "type": "function",
      "constant": true
    },
    {
      "inputs": [
        {
          "internalType": "address[]",
          "name": "accounts",
          "type": "address[]"
        },
        {
          "internalType": "uint256[]",
          "name": "ids",
          "type": "uint256[]"
        }
      ],
      "name": "balanceOfBatch",
      "outputs": [
        {
          "internalType": "uint256[]",
          "name": "",
          "type": "uint256[]"
        }
      ],
      "stateMutability": "view",
      "type": "function",
      "constant": true
    },
    {
      "inputs": [
        {
          "internalType": "address",
          "name": "account",
          "type": "address"
        },
        {
          "internalType": "uint256",
          "name": "id",
          "type": "uint256"
        },
        {
          "internalType": "uint256",
          "name": "value",
          "type": "uint256"
        }
      ],
      "name": "burn",
      "outputs": [],
      "stateMutability": "nonpayable",
      "type": "function"
    },
    {
      "inputs": [
        {
          "internalType": "address",
          "name": "account",
          "type": "address"
        },
        {
          "internalType": "uint256[]",
          "name": "ids",
          "type": "uint256[]"
        },
        {
          "internalType": "uint256[]",
          "name": "values",
          "type": "uint256[]"
        }
      ],
      "name": "burnBatch",
      "outputs": [],
      "stateMutability": "nonpayable",
      "type": "function"
    },
    {
      "inputs": [],
      "name": "deployer",
      "outputs": [
        {
          "internalType": "address",
          "name": "",
          "type": "address"
        }
      ],
      "stateMutability": "view",
      "type": "function",
      "constant": true
    },
    {
      "inputs": [
        {
          "internalType": "address",
          "name": "account",
          "type": "address"
        },
        {
          "internalType": "address",
          "name": "operator",
          "type": "address"
        }
      ],
      "name": "isApprovedForAll",
      "outputs": [
        {
          "internalType": "bool",
          "name": "",
          "type": "bool"
        }
      ],
      "stateMutability": "view",
      "type": "function",
      "constant": true
    },
    {
      "inputs": [],
      "name": "maxBalance",
      "outputs": [
        {
          "internalType": "uint256",
          "name": "",
          "type": "uint256"
        }
      ],
      "stateMutability": "view",
      "type": "function",
      "constant": true
    },
    {
      "inputs": [],
      "name": "reviewCount",
      "outputs": [
        {
          "internalType": "uint256",
          "name": "",
          "type": "uint256"
        }
      ],
      "stateMutability": "view",
      "type": "function",
      "constant": true
    },
    {
      "inputs": [
        {
          "internalType": "uint256",
          "name": "",
          "type": "uint256"
        }
      ],
      "name": "reviews",
      "outputs": [
        {
          "internalType": "string",
          "name": "",
          "type": "string"
        }
      ],
      "stateMutability": "view",
      "type": "function",
      "constant": true
    },
    {
      "inputs": [
        {
          "internalType": "address",
          "name": "from",
          "type": "address"
        },
        {
          "internalType": "address",
          "name": "to",
          "type": "address"
        },
        {
          "internalType": "uint256[]",
          "name": "ids",
          "type": "uint256[]"
        },
        {
          "internalType": "uint256[]",
          "name": "amounts",
          "type": "uint256[]"
        },
        {
          "internalType": "bytes",
          "name": "data",
          "type": "bytes"
        }
      ],
      "name": "safeBatchTransferFrom",
      "outputs": [],
      "stateMutability": "nonpayable",
      "type": "function"
    },
    {
      "inputs": [
        {
          "internalType": "address",
          "name": "from",
          "type": "address"
        },
        {
          "internalType": "address",
          "name": "to",
          "type": "address"
        },
        {
          "internalType": "uint256",
          "name": "id",
          "type": "uint256"
        },
        {
          "internalType": "uint256",
          "name": "amount",
          "type": "uint256"
        },
        {
          "internalType": "bytes",
          "name": "data",
          "type": "bytes"
        }
      ],
      "name": "safeTransferFrom",
      "outputs": [],
      "stateMutability": "nonpayable",
      "type": "function"
    },
    {
      "inputs": [
        {
          "internalType": "address",
          "name": "operator",
          "type": "address"
        },
        {
          "internalType": "bool",
          "name": "approved",
          "type": "bool"
        }
      ],
      "name": "setApprovalForAll",
      "outputs": [],
      "stateMutability": "nonpayable",
      "type": "function"
    },
    {
      "inputs": [
        {
          "internalType": "bytes4",
          "name": "interfaceId",
          "type": "bytes4"
        }
      ],
      "name": "supportsInterface",
      "outputs": [
        {
          "internalType": "bool",
          "name": "",
          "type": "bool"
        }
      ],
      "stateMutability": "view",
      "type": "function",
      "constant": true
    },
    {
      "inputs": [
        {
          "internalType": "uint256",
          "name": "",
          "type": "uint256"
        }
      ],
      "name": "uri",
      "outputs": [
        {
          "internalType": "string",
          "name": "",
          "type": "string"
        }
      ],
      "stateMutability": "view",
      "type": "function",
      "constant": true
    },
    {
      "inputs": [
        {
          "internalType": "address",
          "name": "",
          "type": "address"
        }
      ],
      "name": "userBalance",
      "outputs": [
        {
          "internalType": "uint256",
          "name": "",
          "type": "uint256"
        }
      ],
      "stateMutability": "view",
      "type": "function",
      "constant": true
    },
    {
      "inputs": [
        {
          "internalType": "address",
          "name": "",
          "type": "address"
        }
      ],
      "name": "userLeftReview",
      "outputs": [
        {
          "internalType": "bool",
          "name": "",
          "type": "bool"
        }
      ],
      "stateMutability": "view",
      "type": "function",
      "constant": true
    },
    {
      "inputs": [
        {
          "internalType": "uint256",
          "name": "id",
          "type": "uint256"
        }
      ],
      "name": "mint",
      "outputs": [],
      "stateMutability": "nonpayable",
      "type": "function"
    },
    {
      "inputs": [
        {
          "internalType": "uint256",
          "name": "_maxBalance",
          "type": "uint256"
        }
      ],
      "name": "setMaxBalance",
      "outputs": [],
      "stateMutability": "nonpayable",
      "type": "function"
    },
    {
      "inputs": [
        {
          "internalType": "string",
          "name": "_uri",
          "type": "string"
        }
      ],
      "name": "setBaseUri",
      "outputs": [],
      "stateMutability": "nonpayable",
      "type": "function"
    },
    {
      "inputs": [
        {
          "internalType": "string",
          "name": "_review",
          "type": "string"
        }
      ],
      "name": "leaveReview",
      "outputs": [],
      "stateMutability": "nonpayable",
      "type": "function"
    },
    {
      "inputs": [],
      "name": "burnTokens",
      "outputs": [],
      "stateMutability": "nonpayable",
      "type": "function"
    }
  ],
  "bytecode": "0x6080604052601460065560006009553480156200001b57600080fd5b5060405180606001604052806024815260200162003ae2602491396200004e6301ffc9a760e01b620000d760201b60201c565b6200005f81620001e060201b60201c565b6200007763d9b67a2660e01b620000d760201b60201c565b6200008f630e89341c60e01b620000d760201b60201c565b5033600760006101000a81548173ffffffffffffffffffffffffffffffffffffffff021916908373ffffffffffffffffffffffffffffffffffffffff160217905550620002a2565b63ffffffff60e01b817bffffffffffffffffffffffffffffffffffffffffffffffffffffffff1916141562000174576040517f08c379a000000000000000000000000000000000000000000000000000000000815260040180806020018281038252601c8152602001807f4552433136353a20696e76616c696420696e746572666163652069640000000081525060200191505060405180910390fd5b6001600080837bffffffffffffffffffffffffffffffffffffffffffffffffffffffff19167bffffffffffffffffffffffffffffffffffffffffffffffffffffffff1916815260200190815260200160002060006101000a81548160ff02191690831515021790555050565b8060039080519060200190620001f8929190620001fc565b5050565b828054600181600116156101000203166002900490600052602060002090601f016020900481019282601f106200023f57805160ff191683800117855562000270565b8280016001018555821562000270579182015b828111156200026f57825182559160200191906001019062000252565b5b5090506200027f919062000283565b5090565b5b808211156200029e57600081600090555060010162000284565b5090565b61383080620002b26000396000f3fe608060405234801561001057600080fd5b50600436106101365760003560e01c80639d51d9b7116100b8578063de696cdc1161007c578063de696cdc14610aad578063e83ddcea14610b07578063e985e9c514610bae578063eff5924f14610c28578063f242432a14610c46578063f5298aca14610d5557610136565b80639d51d9b714610912578063a0712d6814610940578063a0bcfc7f1461096e578063a22cb46514610a29578063d5f3948814610a7957610136565b80632eb2c2d6116100ff5780632eb2c2d61461030957806347b448b81461052c5780634e1273f4146105e75780636b20c4541461078857806373ad468a146108f457610136565b8062fdd58e1461013b5780630103c92b1461019d57806301ffc9a7146101f557806308003f78146102585780630e89341c14610262575b600080fd5b6101876004803603604081101561015157600080fd5b81019080803573ffffffffffffffffffffffffffffffffffffffff16906020019092919080359060200190929190505050610dad565b6040518082815260200191505060405180910390f35b6101df600480360360208110156101b357600080fd5b81019080803573ffffffffffffffffffffffffffffffffffffffff169060200190929190505050610e8d565b6040518082815260200191505060405180910390f35b6102406004803603602081101561020b57600080fd5b8101908080357bffffffffffffffffffffffffffffffffffffffffffffffffffffffff19169060200190929190505050610ea5565b60405180821515815260200191505060405180910390f35b610260610f0c565b005b61028e6004803603602081101561027857600080fd5b8101908080359060200190929190505050610f91565b6040518080602001828103825283818151815260200191508051906020019080838360005b838110156102ce5780820151818401526020810190506102b3565b50505050905090810190601f1680156102fb5780820380516001836020036101000a031916815260200191505b509250505060405180910390f35b61052a600480360360a081101561031f57600080fd5b81019080803573ffffffffffffffffffffffffffffffffffffffff169060200190929190803573ffffffffffffffffffffffffffffffffffffffff1690602001909291908035906020019064010000000081111561037c57600080fd5b82018360208201111561038e57600080fd5b803590602001918460208302840111640100000000831117156103b057600080fd5b919080806020026020016040519081016040528093929190818152602001838360200280828437600081840152601f19601f8201169050808301925050505050505091929192908035906020019064010000000081111561041057600080fd5b82018360208201111561042257600080fd5b8035906020019184602083028401116401000000008311171561044457600080fd5b919080806020026020016040519081016040528093929190818152602001838360200280828437600081840152601f19601f820116905080830192505050505050509192919290803590602001906401000000008111156104a457600080fd5b8201836020820111156104b657600080fd5b803590602001918460018302840111640100000000831117156104d857600080fd5b91908080601f016020809104026020016040519081016040528093929190818152602001838380828437600081840152601f19601f820116905080830192505050505050509192919290505050611035565b005b6105e56004803603602081101561054257600080fd5b810190808035906020019064010000000081111561055f57600080fd5b82018360208201111561057157600080fd5b8035906020019184600183028401116401000000008311171561059357600080fd5b91908080601f016020809104026020016040519081016040528093929190818152602001838380828437600081840152601f19601f8201169050808301925050505050505091929192905050506114c0565b005b610731600480360360408110156105fd57600080fd5b810190808035906020019064010000000081111561061a57600080fd5b82018360208201111561062c57600080fd5b8035906020019184602083028401116401000000008311171561064e57600080fd5b919080806020026020016040519081016040528093929190818152602001838360200280828437600081840152601f19601f820116905080830192505050505050509192919290803590602001906401000000008111156106ae57600080fd5b8201836020820111156106c057600080fd5b803590602001918460208302840111640100000000831117156106e257600080fd5b919080806020026020016040519081016040528093929190818152602001838360200280828437600081840152601f19601f8201169050808301925050505050505091929192905050506116a9565b6040518080602001828103825283818151815260200191508051906020019060200280838360005b83811015610774578082015181840152602081019050610759565b505050509050019250505060405180910390f35b6108f26004803603606081101561079e57600080fd5b81019080803573ffffffffffffffffffffffffffffffffffffffff169060200190929190803590602001906401000000008111156107db57600080fd5b8201836020820111156107ed57600080fd5b8035906020019184602083028401116401000000008311171561080f57600080fd5b919080806020026020016040519081016040528093929190818152602001838360200280828437600081840152601f19601f8201169050808301925050505050505091929192908035906020019064010000000081111561086f57600080fd5b82018360208201111561088157600080fd5b803590602001918460208302840111640100000000831117156108a357600080fd5b919080806020026020016040519081016040528093929190818152602001838360200280828437600081840152601f19601f82011690508083019250505050505050919291929050505061189b565b005b6108fc61194e565b6040518082815260200191505060405180910390f35b61093e6004803603602081101561092857600080fd5b8101908080359060200190929190505050611954565b005b61096c6004803603602081101561095657600080fd5b8101908080359060200190929190505050611a21565b005b610a276004803603602081101561098457600080fd5b81019080803590602001906401000000008111156109a157600080fd5b8201836020820111156109b357600080fd5b803590602001918460018302840111640100000000831117156109d557600080fd5b91908080601f016020809104026020016040519081016040528093929190818152602001838380828437600081840152601f19601f820116905080830192505050505050509192919290505050611bf9565b005b610a7760048036036040811015610a3f57600080fd5b81019080803573ffffffffffffffffffffffffffffffffffffffff169060200190929190803515159060200190929190505050611cc8565b005b610a81611e61565b604051808273ffffffffffffffffffffffffffffffffffffffff16815260200191505060405180910390f35b610aef60048036036020811015610ac357600080fd5b81019080803573ffffffffffffffffffffffffffffffffffffffff169060200190929190505050611e87565b60405180821515815260200191505060405180910390f35b610b3360048036036020811015610b1d57600080fd5b8101908080359060200190929190505050611ea7565b6040518080602001828103825283818151815260200191508051906020019080838360005b83811015610b73578082015181840152602081019050610b58565b50505050905090810190601f168015610ba05780820380516001836020036101000a031916815260200191505b509250505060405180910390f35b610c1060048036036040811015610bc457600080fd5b81019080803573ffffffffffffffffffffffffffffffffffffffff169060200190929190803573ffffffffffffffffffffffffffffffffffffffff169060200190929190505050611f60565b60405180821515815260200191505060405180910390f35b610c30611ff4565b6040518082815260200191505060405180910390f35b610d53600480360360a0811015610c5c57600080fd5b81019080803573ffffffffffffffffffffffffffffffffffffffff169060200190929190803573ffffffffffffffffffffffffffffffffffffffff169060200190929190803590602001909291908035906020019092919080359060200190640100000000811115610ccd57600080fd5b820183602082011115610cdf57600080fd5b80359060200191846001830284011164010000000083111715610d0157600080fd5b91908080601f016020809104026020016040519081016040528093929190818152602001838380828437600081840152601f19601f820116905080830192505050505050509192919290505050611ffa565b005b610dab60048036036060811015610d6b57600080fd5b81019080803573ffffffffffffffffffffffffffffffffffffffff169060200190929190803590602001909291908035906020019092919050505061236f565b005b60008073ffffffffffffffffffffffffffffffffffffffff168373ffffffffffffffffffffffffffffffffffffffff161415610e34576040517f08c379a000000000000000000000000000000000000000000000000000000000815260040180806020018281038252602b815260200180613613602b913960400191505060405180910390fd5b6001600083815260200190815260200160002060008473ffffffffffffffffffffffffffffffffffffffff1673ffffffffffffffffffffffffffffffffffffffff16815260200190815260200160002054905092915050565b60046020528060005260406000206000915090505481565b6000806000837bffffffffffffffffffffffffffffffffffffffffffffffffffffffff19167bffffffffffffffffffffffffffffffffffffffffffffffffffffffff1916815260200190815260200160002060009054906101000a900460ff169050919050565b606080600080600190505b6006548111610f80576000610f2c3383610dad565b90506000811115610f725781858481518110610f4457fe5b60200260200101818152505080848481518110610f5d57fe5b60200260200101818152505082806001019350505b508080600101915050610f17565b50610f8c33848461189b565b505050565b606060038054600181600116156101000203166002900480601f0160208091040260200160405190810160405280929190818152602001828054600181600116156101000203166002900480156110295780601f10610ffe57610100808354040283529160200191611029565b820191906000526020600020905b81548152906001019060200180831161100c57829003601f168201915b50505050509050919050565b815183511461108f576040517f08c379a00000000000000000000000000000000000000000000000000000000081526004018080602001828103825260288152602001806137b26028913960400191505060405180910390fd5b600073ffffffffffffffffffffffffffffffffffffffff168473ffffffffffffffffffffffffffffffffffffffff161415611115576040517f08c379a00000000000000000000000000000000000000000000000000000000081526004018080602001828103825260258152602001806136bc6025913960400191505060405180910390fd5b61111d612422565b73ffffffffffffffffffffffffffffffffffffffff168573ffffffffffffffffffffffffffffffffffffffff16148061116357506111628561115d612422565b611f60565b5b6111b8576040517f08c379a00000000000000000000000000000000000000000000000000000000081526004018080602001828103825260328152602001806136e16032913960400191505060405180910390fd5b60006111c2612422565b90506111d281878787878761242a565b60005b84518110156113a35760008582815181106111ec57fe5b60200260200101519050600085838151811061120457fe5b6020026020010151905061128b816040518060600160405280602a8152602001613736602a91396001600086815260200190815260200160002060008d73ffffffffffffffffffffffffffffffffffffffff1673ffffffffffffffffffffffffffffffffffffffff168152602001908152602001600020546124329092919063ffffffff16565b6001600084815260200190815260200160002060008b73ffffffffffffffffffffffffffffffffffffffff1673ffffffffffffffffffffffffffffffffffffffff16815260200190815260200160002081905550611342816001600085815260200190815260200160002060008b73ffffffffffffffffffffffffffffffffffffffff1673ffffffffffffffffffffffffffffffffffffffff168152602001908152602001600020546124f290919063ffffffff16565b6001600084815260200190815260200160002060008a73ffffffffffffffffffffffffffffffffffffffff1673ffffffffffffffffffffffffffffffffffffffff1681526020019081526020016000208190555050508060010190506111d5565b508473ffffffffffffffffffffffffffffffffffffffff168673ffffffffffffffffffffffffffffffffffffffff168273ffffffffffffffffffffffffffffffffffffffff167f4a39dc06d4c0dbc64b70af90fd698a233a518aa5d07e595d983b8c0526c8f7fb8787604051808060200180602001838103835285818151815260200191508051906020019060200280838360005b83811015611453578082015181840152602081019050611438565b50505050905001838103825284818151815260200191508051906020019060200280838360005b8381101561149557808201518184015260208101905061147a565b5050505090500194505050505060405180910390a46114b881878787878761257a565b505050505050565b60016114cd336000610dad565b14611540576040517f08c379a000000000000000000000000000000000000000000000000000000000815260040180806020018281038252601d8152602001807f596f7520686176656e27742066696e6973686564207468652067616d6500000081525060200191505060405180910390fd5b600560003373ffffffffffffffffffffffffffffffffffffffff1673ffffffffffffffffffffffffffffffffffffffff16815260200190815260200160002060009054906101000a900460ff1615611600576040517f08c379a00000000000000000000000000000000000000000000000000000000081526004018080602001828103825260198152602001807f596f7520616c7265616479206c6566742061207265766965770000000000000081525060200191505060405180910390fd5b60088190806001815401808255809150506001900390600052602060002001600090919091909150908051906020019061163b929190613445565b506009600081548092919060010191905055506001600560003373ffffffffffffffffffffffffffffffffffffffff1673ffffffffffffffffffffffffffffffffffffffff16815260200190815260200160002060006101000a81548160ff02191690831515021790555050565b60608151835114611705576040517f08c379a00000000000000000000000000000000000000000000000000000000081526004018080602001828103825260298152602001806137896029913960400191505060405180910390fd5b6060835167ffffffffffffffff8111801561171f57600080fd5b5060405190808252806020026020018201604052801561174e5781602001602082028036833780820191505090505b50905060005b845181101561189057600073ffffffffffffffffffffffffffffffffffffffff1685828151811061178157fe5b602002602001015173ffffffffffffffffffffffffffffffffffffffff1614156117f6576040517f08c379a000000000000000000000000000000000000000000000000000000000815260040180806020018281038252603181526020018061363e6031913960400191505060405180910390fd5b6001600085838151811061180657fe5b60200260200101518152602001908152602001600020600086838151811061182a57fe5b602002602001015173ffffffffffffffffffffffffffffffffffffffff1673ffffffffffffffffffffffffffffffffffffffff1681526020019081526020016000205482828151811061187957fe5b602002602001018181525050806001019050611754565b508091505092915050565b6118a3612422565b73ffffffffffffffffffffffffffffffffffffffff168373ffffffffffffffffffffffffffffffffffffffff1614806118e957506118e8836118e3612422565b611f60565b5b61193e576040517f08c379a00000000000000000000000000000000000000000000000000000000081526004018080602001828103825260298152602001806136936029913960400191505060405180910390fd5b611949838383612909565b505050565b60065481565b600760009054906101000a900473ffffffffffffffffffffffffffffffffffffffff1673ffffffffffffffffffffffffffffffffffffffff163373ffffffffffffffffffffffffffffffffffffffff1614611a17576040517f08c379a00000000000000000000000000000000000000000000000000000000081526004018080602001828103825260188152602001807f596f7520617265206e6f7420746865206465706c6f796572000000000000000081525060200191505060405180910390fd5b8060068190555050565b806000108015611a3357506006548111155b611aa5576040517f08c379a000000000000000000000000000000000000000000000000000000000815260040180806020018281038252600e8152602001807f57726f6e6720746f6b656e20696400000000000000000000000000000000000081525060200191505060405180910390fd5b6000611ab13383610dad565b14611b24576040517f08c379a000000000000000000000000000000000000000000000000000000000815260040180806020018281038252601b8152602001807f596f7520616c72656164792068617665207468697320746f6b656e000000000081525060200191505060405180910390fd5b611b403382600160405180602001604052806000815250612c44565b600460003373ffffffffffffffffffffffffffffffffffffffff1673ffffffffffffffffffffffffffffffffffffffff16815260200190815260200160002060008154809291906001019190505550600654600460003373ffffffffffffffffffffffffffffffffffffffff1673ffffffffffffffffffffffffffffffffffffffff168152602001908152602001600020541415611bf657611bf5336000600160405180602001604052806000815250612c44565b5b50565b600760009054906101000a900473ffffffffffffffffffffffffffffffffffffffff1673ffffffffffffffffffffffffffffffffffffffff163373ffffffffffffffffffffffffffffffffffffffff1614611cbc576040517f08c379a00000000000000000000000000000000000000000000000000000000081526004018080602001828103825260188152602001807f596f7520617265206e6f7420746865206465706c6f796572000000000000000081525060200191505060405180910390fd5b611cc581612e47565b50565b8173ffffffffffffffffffffffffffffffffffffffff16611ce7612422565b73ffffffffffffffffffffffffffffffffffffffff161415611d54576040517f08c379a00000000000000000000000000000000000000000000000000000000081526004018080602001828103825260298152602001806137606029913960400191505060405180910390fd5b8060026000611d61612422565b73ffffffffffffffffffffffffffffffffffffffff1673ffffffffffffffffffffffffffffffffffffffff16815260200190815260200160002060008473ffffffffffffffffffffffffffffffffffffffff1673ffffffffffffffffffffffffffffffffffffffff16815260200190815260200160002060006101000a81548160ff0219169083151502179055508173ffffffffffffffffffffffffffffffffffffffff16611e0e612422565b73ffffffffffffffffffffffffffffffffffffffff167f17307eab39ab6107e8899845ad3d59bd9653f200f220920489ca2b5937696c318360405180821515815260200191505060405180910390a35050565b600760009054906101000a900473ffffffffffffffffffffffffffffffffffffffff1681565b60056020528060005260406000206000915054906101000a900460ff1681565b60088181548110611eb457fe5b906000526020600020016000915090508054600181600116156101000203166002900480601f016020809104026020016040519081016040528092919081815260200182805460018160011615610100020316600290048015611f585780601f10611f2d57610100808354040283529160200191611f58565b820191906000526020600020905b815481529060010190602001808311611f3b57829003601f168201915b505050505081565b6000600260008473ffffffffffffffffffffffffffffffffffffffff1673ffffffffffffffffffffffffffffffffffffffff16815260200190815260200160002060008373ffffffffffffffffffffffffffffffffffffffff1673ffffffffffffffffffffffffffffffffffffffff16815260200190815260200160002060009054906101000a900460ff16905092915050565b60095481565b600073ffffffffffffffffffffffffffffffffffffffff168473ffffffffffffffffffffffffffffffffffffffff161415612080576040517f08c379a00000000000000000000000000000000000000000000000000000000081526004018080602001828103825260258152602001806136bc6025913960400191505060405180910390fd5b612088612422565b73ffffffffffffffffffffffffffffffffffffffff168573ffffffffffffffffffffffffffffffffffffffff1614806120ce57506120cd856120c8612422565b611f60565b5b612123576040517f08c379a00000000000000000000000000000000000000000000000000000000081526004018080602001828103825260298152602001806136936029913960400191505060405180910390fd5b600061212d612422565b905061214d81878761213e88612e61565b61214788612e61565b8761242a565b6121ca836040518060600160405280602a8152602001613736602a91396001600088815260200190815260200160002060008a73ffffffffffffffffffffffffffffffffffffffff1673ffffffffffffffffffffffffffffffffffffffff168152602001908152602001600020546124329092919063ffffffff16565b6001600086815260200190815260200160002060008873ffffffffffffffffffffffffffffffffffffffff1673ffffffffffffffffffffffffffffffffffffffff16815260200190815260200160002081905550612281836001600087815260200190815260200160002060008873ffffffffffffffffffffffffffffffffffffffff1673ffffffffffffffffffffffffffffffffffffffff168152602001908152602001600020546124f290919063ffffffff16565b6001600086815260200190815260200160002060008773ffffffffffffffffffffffffffffffffffffffff1673ffffffffffffffffffffffffffffffffffffffff168152602001908152602001600020819055508473ffffffffffffffffffffffffffffffffffffffff168673ffffffffffffffffffffffffffffffffffffffff168273ffffffffffffffffffffffffffffffffffffffff167fc3d58168c5ae7397731d063d5bbf3d657854427343f4c083240f7aacaa2d0f628787604051808381526020018281526020019250505060405180910390a4612367818787878787612ed1565b505050505050565b612377612422565b73ffffffffffffffffffffffffffffffffffffffff168373ffffffffffffffffffffffffffffffffffffffff1614806123bd57506123bc836123b7612422565b611f60565b5b612412576040517f08c379a00000000000000000000000000000000000000000000000000000000081526004018080602001828103825260298152602001806136936029913960400191505060405180910390fd5b61241d8383836131de565b505050565b600033905090565b505050505050565b60008383111582906124df576040517f08c379a00000000000000000000000000000000000000000000000000000000081526004018080602001828103825283818151815260200191508051906020019080838360005b838110156124a4578082015181840152602081019050612489565b50505050905090810190601f1680156124d15780820380516001836020036101000a031916815260200191505b509250505060405180910390fd5b5060008385039050809150509392505050565b600080828401905083811015612570576040517f08c379a000000000000000000000000000000000000000000000000000000000815260040180806020018281038252601b8152602001807f536166654d6174683a206164646974696f6e206f766572666c6f77000000000081525060200191505060405180910390fd5b8091505092915050565b6125998473ffffffffffffffffffffffffffffffffffffffff166133fa565b15612901578373ffffffffffffffffffffffffffffffffffffffff1663bc197c8187878686866040518663ffffffff1660e01b8152600401808673ffffffffffffffffffffffffffffffffffffffff1681526020018573ffffffffffffffffffffffffffffffffffffffff168152602001806020018060200180602001848103845287818151815260200191508051906020019060200280838360005b83811015612651578082015181840152602081019050612636565b50505050905001848103835286818151815260200191508051906020019060200280838360005b83811015612693578082015181840152602081019050612678565b50505050905001848103825285818151815260200191508051906020019080838360005b838110156126d25780820151818401526020810190506126b7565b50505050905090810190601f1680156126ff5780820380516001836020036101000a031916815260200191505b5098505050505050505050602060405180830381600087803b15801561272457600080fd5b505af192505050801561275857506040513d602081101561274457600080fd5b810190808051906020019092919050505060015b61286257612764613500565b8061276f5750612811565b806040517f08c379a00000000000000000000000000000000000000000000000000000000081526004018080602001828103825283818151815260200191508051906020019080838360005b838110156127d65780820151818401526020810190506127bb565b50505050905090810190601f1680156128035780820380516001836020036101000a031916815260200191505b509250505060405180910390fd5b6040517f08c379a00000000000000000000000000000000000000000000000000000000081526004018080602001828103825260348152602001806135b76034913960400191505060405180910390fd5b63bc197c8160e01b7bffffffffffffffffffffffffffffffffffffffffffffffffffffffff1916817bffffffffffffffffffffffffffffffffffffffffffffffffffffffff1916146128ff576040517f08c379a00000000000000000000000000000000000000000000000000000000081526004018080602001828103825260288152602001806135eb6028913960400191505060405180910390fd5b505b505050505050565b600073ffffffffffffffffffffffffffffffffffffffff168373ffffffffffffffffffffffffffffffffffffffff16141561298f576040517f08c379a00000000000000000000000000000000000000000000000000000000081526004018080602001828103825260238152602001806137136023913960400191505060405180910390fd5b80518251146129e9576040517f08c379a00000000000000000000000000000000000000000000000000000000081526004018080602001828103825260288152602001806137b26028913960400191505060405180910390fd5b60006129f3612422565b9050612a138185600086866040518060200160405280600081525061242a565b60005b8351811015612b3657612ac2838281518110612a2e57fe5b602002602001015160405180606001604052806024815260200161366f6024913960016000888681518110612a5f57fe5b6020026020010151815260200190815260200160002060008973ffffffffffffffffffffffffffffffffffffffff1673ffffffffffffffffffffffffffffffffffffffff168152602001908152602001600020546124329092919063ffffffff16565b60016000868481518110612ad257fe5b6020026020010151815260200190815260200160002060008773ffffffffffffffffffffffffffffffffffffffff1673ffffffffffffffffffffffffffffffffffffffff168152602001908152602001600020819055508080600101915050612a16565b50600073ffffffffffffffffffffffffffffffffffffffff168473ffffffffffffffffffffffffffffffffffffffff168273ffffffffffffffffffffffffffffffffffffffff167f4a39dc06d4c0dbc64b70af90fd698a233a518aa5d07e595d983b8c0526c8f7fb8686604051808060200180602001838103835285818151815260200191508051906020019060200280838360005b83811015612be7578082015181840152602081019050612bcc565b50505050905001838103825284818151815260200191508051906020019060200280838360005b83811015612c29578082015181840152602081019050612c0e565b5050505090500194505050505060405180910390a450505050565b600073ffffffffffffffffffffffffffffffffffffffff168473ffffffffffffffffffffffffffffffffffffffff161415612cca576040517f08c379a00000000000000000000000000000000000000000000000000000000081526004018080602001828103825260218152602001806137da6021913960400191505060405180910390fd5b6000612cd4612422565b9050612cf581600087612ce688612e61565b612cef88612e61565b8761242a565b612d58836001600087815260200190815260200160002060008873ffffffffffffffffffffffffffffffffffffffff1673ffffffffffffffffffffffffffffffffffffffff168152602001908152602001600020546124f290919063ffffffff16565b6001600086815260200190815260200160002060008773ffffffffffffffffffffffffffffffffffffffff1673ffffffffffffffffffffffffffffffffffffffff168152602001908152602001600020819055508473ffffffffffffffffffffffffffffffffffffffff16600073ffffffffffffffffffffffffffffffffffffffff168273ffffffffffffffffffffffffffffffffffffffff167fc3d58168c5ae7397731d063d5bbf3d657854427343f4c083240f7aacaa2d0f628787604051808381526020018281526020019250505060405180910390a4612e4081600087878787612ed1565b5050505050565b8060039080519060200190612e5d929190613445565b5050565b606080600167ffffffffffffffff81118015612e7c57600080fd5b50604051908082528060200260200182016040528015612eab5781602001602082028036833780820191505090505b5090508281600081518110612ebc57fe5b60200260200101818152505080915050919050565b612ef08473ffffffffffffffffffffffffffffffffffffffff166133fa565b156131d6578373ffffffffffffffffffffffffffffffffffffffff1663f23a6e6187878686866040518663ffffffff1660e01b8152600401808673ffffffffffffffffffffffffffffffffffffffff1681526020018573ffffffffffffffffffffffffffffffffffffffff16815260200184815260200183815260200180602001828103825283818151815260200191508051906020019080838360005b83811015612fa9578082015181840152602081019050612f8e565b50505050905090810190601f168015612fd65780820380516001836020036101000a031916815260200191505b509650505050505050602060405180830381600087803b158015612ff957600080fd5b505af192505050801561302d57506040513d602081101561301957600080fd5b810190808051906020019092919050505060015b61313757613039613500565b8061304457506130e6565b806040517f08c379a00000000000000000000000000000000000000000000000000000000081526004018080602001828103825283818151815260200191508051906020019080838360005b838110156130ab578082015181840152602081019050613090565b50505050905090810190601f1680156130d85780820380516001836020036101000a031916815260200191505b509250505060405180910390fd5b6040517f08c379a00000000000000000000000000000000000000000000000000000000081526004018080602001828103825260348152602001806135b76034913960400191505060405180910390fd5b63f23a6e6160e01b7bffffffffffffffffffffffffffffffffffffffffffffffffffffffff1916817bffffffffffffffffffffffffffffffffffffffffffffffffffffffff1916146131d4576040517f08c379a00000000000000000000000000000000000000000000000000000000081526004018080602001828103825260288152602001806135eb6028913960400191505060405180910390fd5b505b505050505050565b600073ffffffffffffffffffffffffffffffffffffffff168373ffffffffffffffffffffffffffffffffffffffff161415613264576040517f08c379a00000000000000000000000000000000000000000000000000000000081526004018080602001828103825260238152602001806137136023913960400191505060405180910390fd5b600061326e612422565b905061329e8185600061328087612e61565b61328987612e61565b6040518060200160405280600081525061242a565b61331b8260405180606001604052806024815260200161366f602491396001600087815260200190815260200160002060008873ffffffffffffffffffffffffffffffffffffffff1673ffffffffffffffffffffffffffffffffffffffff168152602001908152602001600020546124329092919063ffffffff16565b6001600085815260200190815260200160002060008673ffffffffffffffffffffffffffffffffffffffff1673ffffffffffffffffffffffffffffffffffffffff16815260200190815260200160002081905550600073ffffffffffffffffffffffffffffffffffffffff168473ffffffffffffffffffffffffffffffffffffffff168273ffffffffffffffffffffffffffffffffffffffff167fc3d58168c5ae7397731d063d5bbf3d657854427343f4c083240f7aacaa2d0f628686604051808381526020018281526020019250505060405180910390a450505050565b60008060007fc5d2460186f7233c927e7db2dcc703c0e500b653ca82273b7bfad8045d85a47060001b9050833f915080821415801561343c57506000801b8214155b92505050919050565b828054600181600116156101000203166002900490600052602060002090601f016020900481019282601f1061348657805160ff19168380011785556134b4565b828001600101855582156134b4579182015b828111156134b3578251825591602001919060010190613498565b5b5090506134c191906134c5565b5090565b5b808211156134de5760008160009055506001016134c6565b5090565b6000601f19601f8301169050919050565b60008160e01c9050919050565b600060443d1015613510576135b3565b60046000803e6135216000516134f3565b6308c379a0811461353257506135b3565b60405160043d036004823e80513d602482011167ffffffffffffffff8211171561355e575050506135b3565b808201805167ffffffffffffffff81111561357d5750505050506135b3565b8060208301013d8501811115613598575050505050506135b3565b6135a1826134e2565b60208401016040528296505050505050505b9056fe455243313135353a207472616e7366657220746f206e6f6e2045524331313535526563656976657220696d706c656d656e746572455243313135353a204552433131353552656365697665722072656a656374656420746f6b656e73455243313135353a2062616c616e636520717565727920666f7220746865207a65726f2061646472657373455243313135353a2062617463682062616c616e636520717565727920666f7220746865207a65726f2061646472657373455243313135353a206275726e20616d6f756e7420657863656564732062616c616e6365455243313135353a2063616c6c6572206973206e6f74206f776e6572206e6f7220617070726f766564455243313135353a207472616e7366657220746f20746865207a65726f2061646472657373455243313135353a207472616e736665722063616c6c6572206973206e6f74206f776e6572206e6f7220617070726f766564455243313135353a206275726e2066726f6d20746865207a65726f2061646472657373455243313135353a20696e73756666696369656e742062616c616e636520666f72207472616e73666572455243313135353a2073657474696e6720617070726f76616c2073746174757320666f722073656c66455243313135353a206163636f756e747320616e6420696473206c656e677468206d69736d61746368455243313135353a2069647320616e6420616d6f756e7473206c656e677468206d69736d61746368455243313135353a206d696e7420746f20746865207a65726f2061646472657373a2646970667358221220043dd1ba809bba264bc79e049c5dc5f6bb3ff9455e80b70480b6a7d17a8dd34e64736f6c634300060c0033687474703a2f2f6c6f63616c686f73743a333030302f6a736f6e2f7b69647d2e6a736f6e",
  "immutableReferences": {},
  "source": "// contracts/GameItems.sol\n// SPDX-License-Identifier: MIT\npragma solidity ^0.6.0;\n\nimport \"@openzeppelin/contracts/token/ERC1155/ERC1155Burnable.sol\";\n\ncontract CreatureToken is ERC1155Burnable {\n    mapping(address => uint256) public userBalance;\n    mapping(address => bool) public userLeftReview;\n    uint256 public maxBalance = 20;\n    address public deployer;\n    string[] public reviews;\n    uint256 public reviewCount = 0;\n\n    modifier onlyOwner() {\n        require(msg.sender == deployer, \"You are not the deployer\");\n        _;\n    }\n\n    constructor() public ERC1155(\"http://localhost:3000/json/{id}.json\") {\n        deployer = msg.sender;\n    }\n\n    function mint(uint256 id) public {\n        //check if id in range\n        require(0 < id && id <= maxBalance, \"Wrong token id\");\n\n        //check if user already has this id\n        require(balanceOf(msg.sender, id) == 0, \"You already have this token\");\n        _mint(msg.sender, id, 1, \"\");\n        userBalance[msg.sender]++;\n\n        if (userBalance[msg.sender] == maxBalance) _mint(msg.sender, 0, 1, \"\");\n    }\n\n    function setMaxBalance(uint256 _maxBalance) public onlyOwner {\n        maxBalance = _maxBalance;\n    }\n\n    function setBaseUri(string memory _uri) public onlyOwner {\n        _setURI(_uri);\n    }\n\n    function leaveReview(string memory _review) public {\n        require(balanceOf(msg.sender, 0) == 1, \"You haven't finished the game\");\n        require(!userLeftReview[msg.sender], \"You already left a review\");\n        reviews.push(_review);\n        reviewCount++;\n        userLeftReview[msg.sender] = true;\n    }\n\n    function burnTokens() public {\n        uint256[] memory ids;\n        uint256[] memory values;\n        uint256 counter = 0;\n        for (uint256 i = 1; i <= maxBalance; i++) {\n            uint256 balance = balanceOf(msg.sender, i);\n            if (balance > 0) {\n                ids[counter] = i;\n                values[counter] = balance;\n                counter++;\n            }\n        }\n\n        burnBatch(msg.sender, ids, values);\n    }\n}\n",
  "sourcePath": "/Users/karelnagel/Documents/eth/creature_game/src/contracts/CreatureToken.sol",
  "compiler": {
    "name": "solc",
    "version": "0.6.12+commit.27d51765.Emscripten.clang"
  },
  "schemaVersion": "3.4.3",
  "updatedAt": "2021-10-07T07:37:27.190Z",
  "networkType": "ethereum",
  "devdoc": {
    "kind": "dev",
    "methods": {
      "balanceOf(address,uint256)": {
        "details": "See {IERC1155-balanceOf}. Requirements: - `account` cannot be the zero address."
      },
      "balanceOfBatch(address[],uint256[])": {
        "details": "See {IERC1155-balanceOfBatch}. Requirements: - `accounts` and `ids` must have the same length."
      },
      "isApprovedForAll(address,address)": {
        "details": "See {IERC1155-isApprovedForAll}."
      },
      "safeBatchTransferFrom(address,address,uint256[],uint256[],bytes)": {
        "details": "See {IERC1155-safeBatchTransferFrom}."
      },
      "safeTransferFrom(address,address,uint256,uint256,bytes)": {
        "details": "See {IERC1155-safeTransferFrom}."
      },
      "setApprovalForAll(address,bool)": {
        "details": "See {IERC1155-setApprovalForAll}."
      },
      "supportsInterface(bytes4)": {
        "details": "See {IERC165-supportsInterface}. Time complexity O(1), guaranteed to always use less than 30 000 gas."
      },
      "uri(uint256)": {
        "details": "See {IERC1155MetadataURI-uri}. This implementation returns the same URI for *all* token types. It relies on the token type ID substituion mechanism https://eips.ethereum.org/EIPS/eip-1155#metadata[defined in the EIP]. Clients calling this function must replace the `\\{id\\}` substring with the actual token type ID."
      }
    },
    "version": 1
  },
  "userdoc": {
    "kind": "user",
    "methods": {},
    "version": 1
  }
}